:020000040800F2
:1000000088070020792600089F260008A1260008FE
:10001000A3260008A5260008A72600080000000067
:10002000000000000000000000000000A9260008F9
:10003000AB26000800000000AD260008950400086B
:10004000B1260008B126000800000000B126000813
:10005000B1260008B1260008B1260008B126000824
:10006000B1260008B1260008B1260008B126000814
:10007000B1260008B1260008B1260008B126000804
:10008000B12600080000000000000000B1260008B2
:1000900000000000B1260008B1260008B1260008C3
:1000A00000000000B1260008B12600089D040008E9
:1000B00083100008000000000000000000000000A5
:1000C0000448854602F09EFC00480047C30400082F
:1000D000C046C0468807002010B5012000F02AFE67
:1000E000022000F027FE032000F024FE042000F090
:1000F00021FE7A480078002802D000F0EEFE01E0F0
:1001000000F0F5FE75484078002802D000F0F9FEB6
:1001100001E000F000FF71488078002802D000F074
:1001200004FF01E000F00AFF6C48C078002802D00C
:1001300000F00DFF01E000F013FF6948007800288F
:1001400017D0002066490870012410E0611E4900A4
:10015000644A515AFF22F53251430846624902F07F
:10016000D1FA401C6100614A5052601CC4B2042C98
:10017000ECDB10BD10B55E480078002822D00120CD
:100180001DE041005B4A525A41005A4B595A491CE2
:100190004300584CE1524100544B595A8A420CDBFF
:1001A00000214200234699524C49095C002901D1A3
:1001B000012100E00021494A1154411CC8B2042821
:1001C000DFDB03E00621454802F0D7FA10BD10B589
:1001D00042480078002801D1012000E000203F497A
:1001E000087043480078012148404149087042485E
:1001F000C078002809D008213F4802F0BEFA00204C
:100200003D49C870012008700CE03B480078002888
:1002100005D000203849087000F0F8F902E001200C
:100220003549087010BD10B53148007801214840AB
:100230002F4908703048C078012808D008212E487E
:1002400002F09BFA01202C49C87008700CE02A4883
:100250000078002805D000202749087000F0D6F962
:1002600002E001202449087010BD214800780121D6
:1002700048401F49087019488078002801D10120A2
:1002800000E0002015498870704719480078012166
:100290004840174908701148C078002801D1012052
:1002A00000E000200D49C870704710B50120C0065D
:1002B0004468A04710BD012008490870704701201C
:1002C000064948707047012004498870704710B58E
:1002D00001200249C870FFF7E8FF10BD1801002097
:1002E000E6000020EE000020FF0F000002000020CA
:1002F000000000200A0000202000002010B501218D
:1003000089029E4802F039FA10BD10B50446FFF785
:10031000F5FF00209A4908604860084684609748C5
:10032000C86010BD9648006895494968884201D167
:10033000012070470020FCE791484068411C90482C
:100340008068884202D88E488068091A8C48006804
:10035000884201D1012070470020FCE710B5044617
:10036000FFF7EAFF002802D086A002F061FD844872
:10037000C06883494968445481484068401C8049AA
:100380004860084640688968884206D37C484068CF
:100390007B498968401A7A49486010BD10B5FFF75B
:1003A000C1FF002802D07AA002F042FD7448C06864
:1003B00073490968445C72480068401C70490860D1
:1003C000084600688968884206D36D4800686C4911
:1003D0008968401A6A490860204610BD10B502219C
:1003E0006F4802F07EF8002801D0012010BD0020E7
:1003F000FCE710B508216A4802F073F8002801D024
:10040000012010BD0020FCE710B500F0C2FB00F099
:100410000DFC644A6449012000F081FC634A644990
:10042000022000F07CFC634A6349032000F077FC63
:10043000624A6349042000F072FC00F013FD7D2045
:10044000C00000F0F9FA002416E000F09CFD5D48C1
:1004500000F048FB00BF322000F0B9FB0028FAD0C2
:1004600000F087FD00F0E2FA00BFC82000F0AFFB0B
:100470000028FAD0601CC4B2022CE6DB10BD1FB508
:100480000446684602F000F800946946444801F0CA
:10049000CAFF1FBD01204C490870704710B50221EA
:1004A0003F4802F027F800280AD002213C4802F019
:1004B0002AF83B484068454908600878FFF74EFF36
:1004C00010BD92B0FFF7A0FF00250024012080029C
:1004D000FFF71BFFE120400200F07FFD3CA002F08F
:1004E000A7FC4AE0FFF71EFF002846D108212C4850
:1004F00001F0F7FF002840D0FFF750FF33490860B4
:100500003F2C00D30024314800687B2800D1002410
:100510002E48007801A90855641C2C4800687D28E5
:1005200009D1002C07D00020085511AA2AA101A842
:1005300002F02EF905462548008881B2184801F0DE
:10054000C9FF00BF0121164801F0CBFF0028F9D0F8
:10055000012D12D100BF012000F039FB0028FAD094
:100560001198FFF78CFF00BF012000F030FB00283E
:10057000FAD01CA002F05CFC0025B3E74401002087
:100580004405002051756575652066756C6C0A0020
:10059000517565756520656D7074790A00000000FD
:1005A00000380140B7020008CF010008BF02000870
:1005B00027020008C70200086B020008CF020008EB
:1005C0008B020008DC050000F80000201C00002061
:1005D0007B696E69747D00007B626175643A256495
:1005E0007D0000007B6368616E67657D0000000030
:1005F00070B5044621466F4801F014FE2546E00F11
:10060000401941106B4801F028FE70BD10B504463A
:100610002146684801F0FAFB10BD10B566488078A5
:10062000002804D0012816D0022813D1B7E00020FA
:10063000FFF7ECFF6048007801280BD15E49C988BC
:100640005E4A515C49005E4A505AFFF7D1FF0120D3
:1006500059498870ACE05848007801281CD15648A8
:10066000C078002849D15448C0881B283ED252483F
:100670008088401C50498880C988524A515C0A22AF
:10068000514308464C498988C20F121852109142B2
:1006900003DC0120FFF7BAFF80E00020FFF7B6FF80
:1006A00045488188C088474A105C0A2250438142ED
:1006B00074DB0020404988800846C088401CC88000
:1006C0000846C0883D49085C40003D490C5A7D20E1
:1006D000C000844203DC0020FFF798FF5EE0204664
:1006E000FFF786FF0120FFF791FF57E00220324914
:1006F00088700020FFF78AFF50E02F48C07801285B
:1007000049D12D48C08843283ED22B488088401CC0
:1007100029498880C9882C4A515C0A2251430846DD
:1007200025498988C20F12185210914203DC01201A
:10073000FFF76CFF32E00020FFF768FF1E4881885A
:10074000C088214A105C0A225043814226DB0020E7
:10075000194988800846C088401CC8800846C0885F
:100760001A49085C400016490C5A7D20C00084429A
:1007700003DC0020FFF74AFF10E02046FFF738FFB8
:100780000120FFF743FF09E002200B498870002099
:10079000FFF73CFF02E00020FFF738FF08E00020F1
:1007A000054908704870C8708880C880887000BF8C
:1007B00000BF10BD002C0140200000202A000020B6
:1007C0004431000845000020A30000206000002004
:1007D000F8B507460C4615461E4621463846079B87
:1007E000069A00F0DFFD684686700480C570694691
:1007F000384600F032FDF8BDFEB506460F461446F9
:100800001D46032318223946304601950094FFF710
:10081000DFFFFEBDFEB506460F4614461D46022309
:1008200018223946304601950094FFF7D1FFFEBDEE
:10083000FEB506460F4614461D46012318223946CA
:10084000304601950094FFF7C3FFFEBDFEB5064696
:100850000F4614461D4603231C2239463046019597
:100860000094FFF7B5FFFEBDFEB506460F461446E1
:100870001D4602231C223946304601950094FFF79D
:10088000A7FFFEBDFEB506460F4614461D460123D2
:100890001C223946304601950094FFF799FFFEBDB2
:1008A000FEB506460F4614461D460123142239465E
:1008B000304601950094FFF78BFFFEBDFEB506465E
:1008C0000F4614461D460223142239463046019530
:1008D0000094FFF77DFFFEBDFEB506460F461446A9
:1008E0001D46032314223946304601950094FFF734
:1008F0006FFFFEBD7CB504460D460920C00684424C
:1009000001D10D2D05D00920C006844202D10E2D43
:1009100000D17CBD0026002003231022294600962A
:1009200001902046FFF754FF00BFF2E77CB5044674
:100930000D460920C006844201D10D2D05D00920A5
:10094000C006844202D10E2D00D17CBD00260020BD
:10095000032314222946009601902046FFF738FF12
:1009600000BFF2E7F8B507460C4615461E46684636
:100970000480C5706946384600F06FFC3246214657
:100980003846069B00F00EFDF8BDF8B506460F464A
:1009900014461D4623464822394630460095FFF747
:1009A000E1FFF8BDF8B506460F4614461D4623463E
:1009B0002822394630460095FFF7D4FFF8BDF8B538
:1009C00006460F4614461D46234604223946304645
:1009D0000095FFF7C7FFF8BD10B504460921C90609
:1009E000611A890A113101228A401046012100F062
:1009F000C4FE10BD10B50920C006FFF7EDFF10BD05
:100A000010B50748FFF7E8FF10BD10B50548FFF720
:100A1000E3FF10BD10B50448FFF7DEFF10BD000076
:100A20000004004800080048000C004810B50021F0
:100A3000394801F012FC10BD30B589B004460121DF
:100A4000880400F09AFE06220421344800F096FC47
:100A500001A800F04FFC1021684681801821C17167
:100A60000321817101A92D4800F0F7FB21462C4894
:100A700001F032FE401E85B20121C80200F08BFE5B
:100A8000079517216846018300210184817608A813
:100A9000817006A9204800F0C3FF02A801F09AF96E
:100AA0007021684601720121417268100390002193
:100AB0006846017402A9184801F00AF8082116488E
:100AC00001F0B6FA0121144801F07CFA0121124824
:100AD00001F09CF90121104801F0A4F9FFF7A6FFED
:100AE00009B030BD10B504466004010C0A4801F09D
:100AF00099FB2146084801F0B0FB10BD10B5044633
:100B00002068C82801D2C8202060208881B202480D
:100B100001F088FB10BD0000002C014000040048DB
:100B200080841E0010B5002819DB394A03231B02FC
:100B3000D21883089B00D2588307DC0EFF23A34002
:100B40009A438B071B0E8407E40EA3401A43304BD5
:100B5000032424021B198408A4001A5118E02D4A0A
:100B600003071B0F083B9B089B00D2588307DC0E32
:100B7000FF23A3409A438B071B0E8407E40EA34078
:100B80001A43244B0407240F083CA408A4001A515C
:100B900010BD10B5204C601E2049884201D90120AB
:100BA0000CE0601E1E4948610321081FFFF7BAFFD1
:100BB00000201B498861072008610020002801D01F
:100BC00000BFFEE70021481EFFF7ACFF10BD014645
:100BD00014480088002802D11248018015E012480C
:100BE0000078002811D000200F4A10700D480088AE
:100BF000002804DD0B480088401E0A4A108009487E
:100C00000088002801D1012070470020FCE7000087
:100C100000E100E01CED00E040190100FFFFFF00D3
:100C200000E000E000010020F800002010B580483E
:100C300040690121490408437D49486100231A465F
:100C400001210920C006FFF7ADFE79484069012166
:100C5000890408437649486100231A468021754873
:100C6000FFF793FE00231A46012189037148FFF71D
:100C70008CFE6F4840690121090508436C494861B1
:100C800000231A4640216C48FFF77FFE10BD10B5C7
:100C900001210920C00600F035FB10BD10B58021F0
:100CA000644800F02FFB0121484010BD10B5012120
:100CB0008903604800F026FB0121484010BD10B5B3
:100CC00040215D4800F01EFB0121484010BD00207E
:100CD00010E05A49095C00290AD05949095C0329E6
:100CE00006D04100574A515A491C4200554B99526F
:100CF000411CC8B20428ECDB704700200CE05049CE
:100D0000095C032903D04E49095C022902D1042160
:100D10004B4A1154411CC8B20428F0DB704710B58F
:100D2000431EDBB218469B00474CE1508300474C02
:100D3000E25010BD10B50446601EC0B2041E06D0BD
:100D4000012808D002280AD0032810D10BE040481F
:100D5000404908600FE040483E4908600BE03F48CA
:100D60003C49086007E03E483A49086003E000203B
:100D70003849086000BF00BF36480068002830D0FE
:100D800034480068804700282BD001202B490855A3
:100D900060002C49085A14280EDB2948005D002801
:100DA0000AD1FFF7AAFF0120254908550020234951
:100DB00008556100234A505260002249085A7D219B
:100DC000C900884215DB1E48005D012803D01C487D
:100DD000005D02280DD1FFF790FF03201849085548
:100DE00007E00020154908556100164A5052144981
:100DF00008551348005D01280BD102201049085501
:100E0000A00011490858002803D0A1000E4A5058EC
:100E100080470B48005D032808D1A0000B49085803
:100E2000002803D0A100094A5058804710BD000097
:100E30000010024000040048000C00480C01002093
:100E4000100100200401002054050020640500204A
:100E50008F0C0008140100209D0C0008AD0C000848
:100E6000BF0C000810B54D484069012149040843F2
:100E70004A49486110210920C00600F05DFA10219E
:100E80000920C006FFF736FD20210920C00600F02A
:100E900053FA20210920C006FFF72CFD3F48406986
:100EA0000121890408433D49486140213C4800F044
:100EB00043FA40213A48FFF71DFD384840690121B7
:100EC00009050843354948611021364800F034FAD5
:100ED00010213448FFF70EFD10BD10B51021092078
:100EE000C00600F02BFA01202F49087010BD10B584
:100EF00010210920C00600F01FFA00202A490870BE
:100F000010BD10B520210920C00600F017FA0120FD
:100F10002549487010BD10B520210920C00600F0F9
:100F20000BFA00202049487010BD10B540211C4824
:100F300000F004FA01201C49887010BD10B5402152
:100F4000174800F0F9F900201749887010BD10B556
:100F50001021144800F0F2F901201349C87010BDA7
:100F600010B510210F4800F0E7F900200E49C870B5
:100F700010BD10B5FFF7BBFFFFF7CDFFFFF7DEFF9A
:100F8000FFF7EEFF10BD10B5FFF7A7FFFFF7B9FFA2
:100F9000FFF7CBFFFFF7DBFF10BD000000100240A2
:100FA00000040048000C00481801002000BF7047F2
:100FB00000BF624A9268D207D20F002AF9D0C2B2AB
:100FC0005E4B1A60704708B51B216846017001210D
:100FD0004170817000F014FA08BD10B586B0044667
:100FE0000121880300F0D7FB0121880400F0C5FB34
:100FF00000220621524800F0C1F900220721504882
:1010000000F0BCF9012204214E4800F0B7F9032298
:1010100006214C4800F0B2F905A800F06BF9402118
:1010200068468182032181751821C17505A944484C
:1010300000F013F98021684681824821C17505A915
:101040003F4800F00AF901A801F01EFA019430218E
:101050006846018100214181818101821821C1817D
:1010600001A9364801F0DFF90121344801F019FAED
:1010700001220221314801F01AFAFFF7A4FF06B05D
:1010800010BD10B50221304801F034FA00280ED00E
:1010900002212D4801F037FA0F222C49481E01F099
:1010A00045FB294801F019FA2849491EC87310BDAB
:1010B00010B504462146244801F00CFA00BF012176
:1010C000214801F00EFA0028F9D010BD10B520A07B
:1010D00001F0AEFE002409E02349085DFFF7E8FFB8
:1010E0002148015D21A001F0A3FE641C102CF3D364
:1010F00020A001F09DFE21A001F09AFE002412E044
:101100001248401E015D19A001F092FE1648005DD4
:101110000E49491E095D884204D01EA001F088FED8
:10112000002010BD641C102CEAD312A001F080FE38
:1011300023A001F07DFE0120F3E70000003801400C
:1011400000040048000C00480044004075050020E1
:101150002D2D2D205561727432205472616E736D85
:101160006974A3BA000000001E01002030782578C1
:10117000200000002D2D2D0D0A0000002D2D2D200A
:101180005561727432205265636569766564A3BAED
:10119000000000002D2D2D0D0A2D2D2D20556172E2
:1011A0007432205265636569766564206461746198
:1011B000204572726F72202D2D2D0D0A0000000047
:1011C0002D2D2D2055415254322074657374207397
:1011D000756363657373202D2D2D0D0A00000000CB
:1011E00010B504461720C0062018002808D0012199
:1011F0008902401A0AD0401A0ED0401A18D111E0C4
:1012000000210120400400F0B8FA12E00021012082
:10121000800400F0B2FA0CE000210120C00400F0CC
:10122000ACFA06E000210120000500F0A6FA00E07B
:1012300000BF00BF10BD0020C0430921C9060862DD
:101240006B48486200176B49086248626A49086245
:1012500048626A49086248627047F8B50246CD782C
:101260002F073F0FCD7810263540002D01D08D7807
:101270002F431446002011E085062B0E0D88012611
:1012800086403540002D07D025680F269E40B54387
:101290003E469E4035432560451CE8B20828EBDBFE
:1012A000141D0D882D120095002011E085062B0ECF
:1012B00001258540009E3540002D07D025680F266A
:1012C0009E40B5433E469E4035432560451CE8B2EE
:1012D0000828EBDBCD78282D04D155690E883543DD
:1012E000556106E0CD78482D03D115690E88354348
:1012F0001561F8BD0021C9430180022181700421DC
:10130000C1707047024690680840002801D0012053
:1013100070470020FCE70146886880B270470246AB
:10132000D0680840002801D0012070470020FCE769
:101330000146C86880B270470161704741617047DB
:10134000002A01D0016100E041617047C16070472F
:10135000002A03D083690B43836102E083698B43D6
:1013600083617047012212040A4382618161012274
:1013700012040A43826182698269704770B54D0721
:10138000EB0E082902DA0546203501E00546243532
:101390002C460F269E402568B54316469E40354391
:1013A000256070BDF0B50446002B1FDB002008E06F
:1013B000CD07ED0F002D01D0014604E04910451C7A
:1013C000E8B22028F4DB00BF4D07EA0E082902DA54
:1013D0002546203501E0254624352F460F26964028
:1013E0003D68B5431E46964035433D60F0BD000064
:1013F000FFFF0FF00004004800080048000C004800
:101400008178002925D03F490322120289180278E9
:1014100092109200895802789207D30EFF229A40C8
:10142000914342789207120E03789B07DB0E9A4095
:101430001143344A03231B02D21803789B109B00EC
:10144000D1500178CA06D20E012191402D4A116077
:1014500007E00178CA06D20E01219140294A803264
:1014600011607047C178002925D026490322120255
:101470008918027892109200895802789207D30E48
:10148000FF229A40914382789207120E03789B07BD
:10149000DB0E9A4011431B4A03231B02D218037828
:1014A0009B109B00D1500178CA06D20E01219140B9
:1014B000144A116007E00178CA06D20E012191405A
:1014C000104A803211607047002905D00E4A126917
:1014D00002430D4B1A6104E00B4A126982430A4B26
:1014E0001A617047042806D108490969042211438A
:1014F000064A116105E00549096904229143034A3E
:101500001161704700E100E000ED00E000E000E064
:10151000FC48006801210843FA4908600846406811
:101520008008800048600846006809210904884353
:10153000F449086008460068012189048843F1499C
:1015400008600020486088607047EE4909680522FD
:1015500012049143EB4A116001210904411A12D08F
:1015600003221204891A16D1E6490968012292045D
:101570001143E44A11601146096801221204114323
:10158000E04A116008E0DF490968012212041143B2
:10159000DC4A116000E000BF00BF704701464811FF
:1015A000012802D1D748006806E04811022801D17D
:1015B000002001E0D348406ACB06DB0E01229A40AE
:1015C0001040002801D0012070470020FCE730B512
:1015D000002500BF3120FFF7E1FF04466D1C002C01
:1015E00003D1052000028542F4D13120FFF7D6FF58
:1015F000002801D0012030BD0020FCE730B50446B2
:10160000002507E028466D1C05210902884201D902
:10161000002030BD2046FFF7C1FF0028F2D0012096
:10162000F7E7B8490968490849000143B54A11601C
:101630007047B4494968890889000143B14A51603B
:101640007047B04840680C2108407047AD49496870
:10165000F02291430143AB4A51607047A949496860
:101660000722120291430143A64A51607047A549DF
:1016700049680722D2029143C2001143A14A516036
:101680007047A0494968A04A114001439D4A5160F2
:1016900070479C49496A490849000143994A516287
:1016A0007047984840680C221040042805D008284C
:1016B00005D00C280ED1954918E0954916E09148BF
:1016C0000068012212051040002801D0914870479F
:1016D0009148FCE78B480068012212051040002861
:1016E00001D08E4800E08A48014600BF00BF08468E
:1016F000EDE700B5FFF7D5FF82494968F0221140B8
:101700000909874A515CC84000BD00B5FFF7F1FFE9
:101710007C494968072212021140090A804A515C3B
:10172000C84000BD00B5FFF7E4FF764949680722CD
:10173000D2021140C90A7A4A515CC84000BD38B58E
:10174000044678A000680090FFF7ABFF2060FFF729
:10175000D0FF6060FFF7D9FFA060FFF7E3FFE06014
:10176000684A5268684BDB431A4012096B46995C21
:10177000E06800F0B1FF206138BD002905D0614A62
:10178000526902435F4B5A6104E05E4A52698243E8
:101790005C4B5A617047002905D05A4A926902434E
:1017A000584B9A6104E0574A92698243554B9A61BB
:1017B0007047002905D0534AD2690243514BDA6180
:1017C00004E0504AD26982434E4BDA6170470029E7
:1017D00005D04C4AD26802434A4BDA6004E0494AD9
:1017E000D2688243474BDA607047002905D0454AEA
:1017F00012690243434B1A6104E0424A1269824370
:10180000404B1A617047002905D03E4A926A024354
:101810003C4B9A6204E03B4A926A8243394B9A629B
:101820007047384909680122D2049143C204114328
:10183000344A1160704733494968072212069143C0
:101840000143304A516070472E48406A0121090621
:1018500008432C4948627047002906D0294A9268FB
:1018600003021A43274B9A6005E0264A9268030256
:101870009A43244B9A60704701462248806808408A
:10188000704720498968020411431E4A91607047DD
:101890001C49096901431B4A1161114609698143C9
:1018A0001161704770471749C9680143154AD160F3
:1018B0001146C9688143D16070471B4800694008E0
:1018C000400019490861704770B50546FFF711FFE0
:1018D0000646164900F000FF04466C43601E14499A
:1018E000884200D90CE0601E0F4948610321081F9F
:1018F00000F020F800200C4988610720086100BF33
:1019000070BD0000001002408FBFFFFF409C000030
:1019100000127A0000A24A04006CDC02001BB7002F
:101920002E0100200204060800E000E040420F0003
:10193000FFFFFF0010B5002819DB1A4A03231B0222
:10194000D21883089B00D2588307DC0EFF23A340E4
:101950009A438B071B0E8407E40EA3401A43114BD6
:10196000032424021B198408A4001A5118E00E4A0B
:1019700003071B0F083B9B089B00D2588307DC0E14
:10198000FF23A3409A438B071B0E8407E40EA3405A
:101990001A43054B0407240F083CA408A4001A515D
:1019A00010BD000000E100E01CED00E010B50446B1
:1019B000F649601A8C4221D00CDCF548201800282A
:1019C00014D001218902401A14D02521C902401ADD
:1019D00023D106E001218902401A14D0401A1CD1FB
:1019E00016E00120C002FFF75EFF17E00120FFF7BD
:1019F0004FFF13E00220FFF74BFF0FE00120000430
:101A0000FFF751FF0AE001204004FFF74CFF05E01B
:101A100001208004FFF747FF00E000BF00BF10BDBA
:101A2000026803231B029A430B891A430260D94AB6
:101A3000904206D001229207904202D0D64A9042AC
:101A400005D1026870239A438B781A430260D14A09
:101A5000904205D0D14A904202D0D14A904205D15D
:101A6000026B120A12028B7A1A4302634A68C2623C
:101A70000A88826201224261704710B58269702330
:101A80009A430B781A4382610A7A4B781A43036AA5
:101A90009B089B001A4302624A684263BD4A904217
:101AA00005D0BE4A904202D0BD4A90420FD14A7A38
:101AB0008B781A43036A0C24A3431A4302624A89AF
:101AC0008B891A434368A401A3431A43426010BDA3
:101AD00010B5826907231B039A430B781B021A4334
:101AE00082610A7A12014B781B011A43036A30247F
:101AF000A3431A4302624A688263A64A904213D102
:101B00004A7A12018B781B011A43036AC024A3434B
:101B10001A4302624A8992008B899B001A434368E8
:101B20002401A3431A43426010BD10B5C26970235B
:101B30009A430B781A43C2610A7A12024B781B024D
:101B40001A43036A03242402A3431A4302624A6825
:101B5000C263904A904213D14A7A12028B781B02D8
:101B60001A43036AA400A3431A4302624A8912017A
:101B70008B891B011A434368A400A3431A434260A4
:101B800010BD10B5C26907231B039A430B781B02D3
:101B90001A43C2610A7A12034B781B031A43036A81
:101BA00003242403A3431A4302624A680264794A65
:101BB000904207D1426801239B039A434B899B01C2
:101BC0001A43426010BDC26903239B029A430B0271
:101BD0001A43C261704770B51C0315022C43C569D6
:101BE000F3263602B5432C43C461046A03252D0352
:101BF000AC430D030126360335432C43046270BD0C
:101C0000C2690C239A430A43C261704770B5C46924
:101C1000F325AC431D0115432C43C461046A03251D
:101C20002D02AC430D02FF26013635432C430462DE
:101C300070BD826903239B029A430B021A4382619F
:101C4000704770B51C0315022C438569F3263602D4
:101C5000B5432C438461046A3025AC430D01102642
:101C600035432C43046270BD82690C239A430A43B6
:101C70008261704730B58469F325AC431D0115437B
:101C80002C438461046AA408A40001250D432C435D
:101C9000046230BD70B505460C462078002806D099
:101CA00004280FD0082818D00C282CD120E0A388B5
:101CB000A27861782846FFF7DDFFE1782846FFF734
:101CC000D3FF21E0A388A27861782846FFF7B9FF07
:101CD000E1782846FFF7ADFF16E0A388A278617887
:101CE0002846FFF793FFE1782846FFF789FF0BE0CE
:101CF000A388A27861782846FFF76DFFE17828462F
:101D0000FFF761FF00E000BF00BF70BDF8B50546FA
:101D10000C46002601276078002801D1022000E04F
:101D200000200646A078012801D1022000E0012011
:101D300007462078002814D1A388A2786178284625
:101D4000FFF798FFE1782846FFF78EFFA3883A4611
:101D500031462846FFF775FFE1782846FFF769FF0F
:101D600013E0A388A27861782846FFF76AFFE1783C
:101D70002846FFF75EFFA3883A4631462846FFF71C
:101D800079FFE1782846FFF76FFFF8BD004001407A
:101D9000000000C0002C014000040040004401404D
:101DA000004801400A884B881A438B881A43CB8825
:101DB0001A430B891A434B891A438B891A4342648D
:101DC00070470021C9434160002101800181817079
:101DD0008172704700210170417081704160017211
:101DE0004172418181817047002101704170012160
:101DF00081700021C1708180704700210180418085
:101E00008180C1800181418181817047002904D096
:101E1000026801231A43026003E00268520852007C
:101E200002607047002905D0426C0123DB031A438E
:101E3000426404E0426C0123DB039A43426470472E
:101E4000002A03D0C3680B43C36002E0C3688B431E
:101E5000C3607047416170470B461343836470470A
:101E6000002A03D0C3680B43C36002E0C3688B43FE
:101E7000C36070478168C908C90081607047826883
:101E800070239A430A438260704730B504460D467A
:101E900029462046FFF7F3FFA06807210843A0600A
:101EA00030BDF8B504460D4616461F46602D06D1D6
:101EB0003B46012231462046FFF7C3FE05E03B4684
:101EC000012231462046FFF7D5FE29462046FFF77E
:101ED000D6FFA06807210843A060F8BD30B584682C
:101EE0000125AD03AC43846084686D00AC431443AA
:101EF0008460846803252D03AC430C4384608468AC
:101F0000FF252D02AC431D022C43846030BDF0B58B
:101F100004460D4616461F463B4632462946204695
:101F2000FFF7DCFFA068772188437730A060F0BD21
:101F3000F0B504460D4616461F463B463246294636
:101F40002046FFF7CBFFA068012189030843A0606A
:101F5000F0BD816242617047026870239A430A4370
:101F60000260704730B58468E408E4000C43846084
:101F70008469F74D2C40FF3402348461046A2225C1
:101F8000AC431D0115432C43046230BD82697023AC
:101F90009A430A4382617047826907231B039A436D
:101FA0000B021A4382617047C26970239A430A4345
:101FB000C2617047C26907231B039A430B021A438D
:101FC000C2617047002904D0026880231A4302606E
:101FD00003E0026880239A4302607047002904D01E
:101FE000426804231A43426003E0426804239A4390
:101FF00042607047002904D0426808231A434260B7
:1020000003E0426808239A4342607047002904D0E5
:10201000426801231A43426003E0426852085200BA
:1020200042607047826908239A430A43826170477D
:1020300082690123DB029A430B021A4382617047D3
:10204000C26908239A430A43C2617047C2690123E7
:10205000DB029A430B021A43C26170478269042370
:102060009A430A4382617047826901239B029A4323
:102070000B021A4382617047C26904239A430A43E0
:10208000C2617047C26901239B029A430B021A4343
:10209000C2617047826980239A430A438261704714
:1020A00082690123DB039A430B021A438261704762
:1020B000C26980239A430A43C2617047C2690123FF
:1020C000DB039A430B021A43C2617047026A022380
:1020D0009A430A4302627047026A08239A430A43FA
:1020E00002627047026A20239A430B011A4302627C
:1020F0007047026A80239A430B011A4302627047B9
:10210000026A01235B029A430B021A430262704780
:10211000026A0123DB029A430B021A4302627047F0
:10212000026A01235B039A430B031A43026270475E
:1021300010B5036A01248C40A34314468C4023430A
:10214000036210BD10B50C2907D0036A04248C402B
:10215000A34314468C402343036210BD10B5036AA9
:1021600001248C40A3430362002906D004290AD02D
:10217000082910D00C291CD113E083697024A343D3
:102180001343836116E0836907242403A3431402E5
:10219000234383610EE0C3697024A3431343C361E7
:1021A00008E0C36907242403A34314022343C36143
:1021B00000E000BF00BF10BD002904D00268022368
:1021C0001A43026003E0026802239A4302607047E8
:1021D000026804239A430A4302607047002904D02E
:1021E000426880231A43426003E0426880239A4396
:1021F00042607047026808239A430A4302607047AE
:10220000426870239A430A43426070478268D2084A
:10221000D2000A4382607047826880239A430A434F
:1022200082607047C1627047026803231B029A43B1
:102230000A430260704701229207904201D1416235
:1022400001E08AB24262704701229207904201D1B6
:10225000416301E08AB242637047012292079042D3
:1022600001D1816301E08AB2826370470122920743
:10227000904201D1C16301E08AB2C263704701227A
:102280009207904201D1016401E08AB20264704772
:102290000146486B70470146886B70470146C86B22
:1022A00070470146086C70470146486A704701460E
:1022B000886A80B27047024610690840002801D041
:1022C000012070470020FCE702698A4302617047E1
:1022D000024610690840002805D0D0680840002850
:1022E00001D0012070470020FCE702698A430261A7
:1022F0007047002904D0026A02231A43026203E0F5
:10230000026A02239A4302627047002904D0026ADB
:1023100020231A43026203E0026A20239A430262E6
:102320007047002905D0026A01235B021A4302624A
:1023300004E0026A01235B029A43026270470029AB
:1023400008D0026A01235B031A43026207E000001F
:10235000FCFCFFFF026A01235B039A4302627047A1
:102360008AB2826570470146886D704710B5426D2C
:1023700070239A430B781B011A4342650A7A1204B0
:102380004B781B041A43036A03242404A3431A430F
:1023900002624A6802641A4A904207D142680123E5
:1023A0001B049A434B891B021A43426010BD426DC5
:1023B00008239A430A4342657047026A01235B047B
:1023C0009A430B041A4302627047426D04239A43F6
:1023D0000A4342657047426D80239A430A4342652F
:1023E0007047002905D0426C01231B041A43426444
:1023F00004E0426C01231B049A43426470470000CE
:10240000002C014010B504466E48844203D10120DF
:102410004004FFF73DFA6C48844203D10120800359
:10242000FFF741FA10BD70B504460D460026E0697D
:102430003021884329790843E061E06944218843D9
:10244000A9790843E061E06980088000297A08439F
:10245000E061A0691821884369890843A061A069E7
:1024600004218843297B0843A061584E30462968DF
:1024700000F032F9000920623046296800F02CF99A
:102480000007000F606270BD4B21C901016030215F
:1024900001710021817101721821418100210173B4
:1024A00070478269520852000A4382617047002ACD
:1024B00003D003690B43036102E003698B430361AB
:1024C000704710B50B4681690224A1435400214393
:1024D000816110BDCAB20260704701464868C0B24F
:1024E0007047024690680840002801D001207047DC
:1024F0000020FCE70246D0680840002801D00120F7
:1025000070470020FCE741617047C26901235B030B
:102510009A430A43C2617047C26901231B039A436D
:102520000B031A43C2617047826A120A12020A43FD
:1025300082627047C26A120A12020A43C26270477C
:10254000C2690123DB029A43CB021A43C26170477E
:10255000C269FF2301339A430B021A43C2617047D9
:10256000C26901235B029A430A43C2617047C26990
:1025700001239B029A438B021A43C2617047026B8C
:1025800001231B039A430B031A4302637047026B38
:10259000FF231B019A430B011A4302637047026B2E
:1025A000520852000A4302637047026B02239A43A7
:1025B0004B001A4302637047C16908221143C1618D
:1025C00070470000004400400038014000512502DF
:1025D000274800680121090408432549086000BF15
:1025E000234800680121490408400028F8D0214808
:1025F0000068C008C0001F49086008460068102134
:1026000008431C490860084600680221084319492C
:1026100008601748403000690121084314494031DF
:10262000086108460069FF210904884310494031C8
:102630000861084600690121C90408430C4940317A
:1026400008610B4800680121090608430849086031
:1026500000BF074800680121490608400028F8D05B
:102660000348406802210843014948607047000060
:1026700000100240002002400E4880F308880E48F7
:102680000168090E0D4A914205D10D480D490160BE
:102690000D480E4901600E4880470E480047FEE78E
:1026A000FEE7FEE7FEE7FEE7FEE7FEE7FEE7FEE702
:1026B000FEE7000088070020040000001F00000063
:1026C000181002400100000000000140000000005E
:1026D000D1250008C100000830B50B460146002096
:1026E0002022012409E00D46D5409D4205D31D4618
:1026F0009540491B2546954040191546521E002D10
:10270000F1DC30BD70B500242546002801DA012433
:102710004042002901DA01254942FFF7DDFFAC42C2
:1027200000D04042002C00D0494270BD10B5431A81
:10273000934209D28318881803E0401E01785B1E7B
:102740001970521EF9D210BD03460B439B0703D0EC
:1027500009E008C9121F08C0042AFAD203E00B7866
:102760000370401C491C521EF9D210BDD2B201E0C8
:102770000270401C491EFBD270470022F6E710B5DC
:1027800013460A4604461946FFF7F0FF204610BDDF
:102790000FB400B58DB009900B9010A900200091E6
:1027A000C0430A9000200C90064806900648079007
:1027B0006A4609A80F9900F0F3F80DB008BC04B000
:1027C00018470000C1290008E1290008FFB50027CB
:1027D000FF4383B000205C6801909E681D46A96994
:1027E0007F1C049888470090296A88470028F6D102
:1027F0000098401C0CD0032040028443002E19DDB9
:10280000600614D500982B2809D02D280FD103E09D
:102810000020C04307B0F0BD012080020443A96935
:102820007F1C04988847761E0090002E02DD0098D9
:10283000302803D00598002825D035E0012040023B
:102840000443A969761E7F1C049888470090002ED7
:1028500003DD782805D0582803D00598002810D02B
:1028600022E00598002801D010281DD10120400247
:102870008443A969761E7F1C049888470090102025
:1028800002E0082000E00A2005900DE00121490245
:102890000C43059A0199761E514308180190A969C5
:1028A0007F1C049888470090002E05DD059900984C
:1028B00000F061F80028E9DAE96904988847A00582
:1028C00002D40120C043A5E7E00722D1600611D55C
:1028D0006005019800D5404229680A1D2A600968F0
:1028E000220501D5087014E0220701D5088010E008
:1028F00008600EE02868011D29600068210502D5E6
:102900000199017005E02107019901D5018000E0DE
:10291000016038467EE7F0B51FB40646002082B05D
:1029200005464024019100901BE0019922460F4684
:10293000304600F089F8049A059B801A994110D31B
:1029400010461946224600F06FF8361A8F4101975B
:10295000224601200021009F00F066F838184D4102
:1029600000902046641E0028DFDC019B0098294669
:10297000324607B0F0BD3A2800D230382023024654
:102980009A43412A01D310463738884201D30020A8
:10299000C0437047026813785118016018467047A9
:1029A00010B5D160044951610449116200211161DF
:1029B000114600F061F810BD952900086B2A000847
:1029C0004268002A08D001680B78491C002B03D00C
:1029D000521E06C0184670470121C160881E70470C
:1029E0004268002A0BD0C3680168002B07D18368B6
:1029F0008B4204D0491E521C06C0002070470020A4
:102A0000C0437047064C0125064E05E0E36807CC3D
:102A10002B430C3C98471034B442F7D3FDF754FBDA
:102A2000D8310008F831000810B5202A04DB01462F
:102A3000203A9140002010BD914020239C1A03466B
:102A4000E3401943904010BD10B5202A04DB08462E
:102A5000203AD040002110BD0B46D340D040202466
:102A6000A21A91400843194610BD10B50F21C0B2FB
:102A7000490200F09FF910BDF3B58DB000200A9017
:102A800001200B90002608460C300C460990626924
:102A9000012109989047051E2ED0252D2DD0216AA1
:102AA0008847002818D06269012109989047216A57
:102AB00088470028F7D1411E62690998904700E0D5
:102AC000761CA1690D988847216A88470028F7D1AC
:102AD000E1690D988847DAE7A1690D9888470746AC
:102AE000A84201D1761CD2E7E1690D9888477F1C86
:102AF00002D10A98002877D04AE1002762693D4652
:102B00003946099890472A280CD162690121099811
:102B10009047012506E00A214F433F18303FEBD490
:102B20001020054362690121099890470146303918
:102B30000A2903D29C498F42DEDCECE7E90600D487
:102B40009A4F6C280AD04C2810D0682824D06A28C4
:102B50002ED074280CD07A280AD00DE062690121A9
:102B6000099890476C2823D004211CE020200543BD
:102B70006269012109989047A760656065284FD078
:102B800026DC582839D01ADC452849D012DC252803
:102B900034D04128B0D143E06269012109989047BF
:102BA000682802D008210D43E6E70120C002DEE7D5
:102BB0000220DCE7462833D047282CD130E05B28C0
:102BC00070D061282CD063286CD0642823D161E0B8
:102BD0006F284FD009DC662822D0672820D06928CA
:102BE00026D06E2817D12EE0CEE070284DD0732865
:102BF0006FD075284ED078280DD154E0A1690D987A
:102C000088470546252800D16CE7E1690D9888477B
:102C10006D1C00D16DE7BBE00A224CE00A2252E0B5
:102C2000012023466A46C0430D99C046C046A4E031
:102C30002846402108436060A807234601D50022AA
:102C400039E000223FE0E80700D020E72068011DBE
:102C500021600068290501D5067018E7290701D50C
:102C6000068014E7A90703D5F117066041600EE757
:102C700006600CE72846402108436060A807234609
:102C800001D5082217E008221DE0494928460840DE
:102C9000606016E02846402108436060A80723468C
:102CA000BCD5B9E715E02846402108436060A80775
:102CB00007D5234610220120C0430D99C046C046C7
:102CC0005BE0234610220120C0430D99FFF77EFDF3
:102CD00053E000210C910B460091632802D05B2841
:102CE00008D044E02079C00601D40120A060012072
:102CF00000903CE062690121099890475E2805D167
:102D000001200C90014662690998904721690029C9
:102D100006D10B4601AA8F00491CD3510829FADBC2
:102D2000002835D0216900290ED1C117C90E091814
:102D30004A11930001AA9A1849094901411A012030
:102D40001368884003431360626901210998904722
:102D50005D28E5D10C98002808D0002001AB810047
:102D60005A58401CD2435A500828F8DB01AB0120C6
:102D70002246C0430D99C046C04600280ADA401CCE
:102D800006D10B98002803D00020C0430FB0F0BD3F
:102D90000A98FBE7E90702D10A99491C0A913618FB
:102DA00000200B9073E60000CCCCCC0CFFFFFF7F23
:102DB000F1F7FFFF7F2801D9002207E0054B420809
:102DC0009A5CC00700D112091207120F012090402F
:102DD000084070479631000870B58C180578401C83
:102DE0006B075B0F01D10378401C2A1106D10278D2
:102DF000401C03E006780E70401C491C5B1EF9D194
:102E00002B0705D40023521E0DD40B70491CFAE782
:102E10000378401CCB1A921C03E01D780D70491CEE
:102E20005B1C521EF9D5A142D8D3002070BD000012
:102E30000FB410B503A9044B044A029800F018F827
:102E400010BC08BC04B01847B10F000840010020B6
:102E500002E008C8121F08C1002AFAD17047704763
:102E6000002001E001C1121F002AFBD170470000C1
:102E7000FFB58FB00F460446002606E025280AD08D
:102E8000129A11999047641C761C20780028F5D17D
:102E9000304613B0F0BD002501219F4A009500E0A7
:102EA0000543641C23780846203B98401042F7D124
:102EB00020782E2815D1042005436078641C2A2828
:102EC0000AD101CF641C00900BE000990A22514303
:102ED00030394018641C00902078014630390929A7
:102EE000F3D920786C280ED004DC4C2813D06A2843
:102EF00012D104E074280ED07A280DD10BE0012005
:102F00004005054307E00121090562780D4382422F
:102F100001D16D18641C641C2078692849D008DC34
:102F20000028B5D058286CD063280FD0642808D169
:102F30003FE070286AD0732811D075285FD07828B8
:102F40005FD0129A11999047761CE3E03878694671
:102F500008720020487202A80190012003E038683E
:102F600001900020C0433F1D69070CD5002500E0FB
:102F70006D1C00998D420FDA8542F9DB0199495D9C
:102F80000029F5D108E0002500E06D1C8542FCDB3E
:102F90000199495D0029F8D1761907E00198019956
:102FA0000078491C0191129A119990476D1EF5D233
:102FB000B0E00A20029000216802400F039102282D
:102FC0000CD001CFC117844600290DDA60460A46AD
:102FD00040420021914184462D2008E0FF1DFF085A
:102FE000FF0003CF8446EFE7280504D52B206A466F
:102FF000107401203DE0E8073BD02020F7E70A20CD
:1030000000E0102000210391029007E010200290C0
:103010000021042005430820039100906802400F1E
:10302000022811D001CF0021844600200D902807EE
:1030300020D52078864670280CD0029A1020039B59
:1030400042401A430CD015E0FF1DFF08FF0003CFDC
:103050008446EAE740206A46107401200D900CE097
:103060006046084306D030206A461074704650749B
:1030700002200D902078582804D028A001900DA897
:103080000E900DE02AA0F9E76046039B029AFFF735
:1030900042FC019B84469B5C0E9A521E0E9213705A
:1030A00060460843F0D10E9805A9081A2030019017
:1030B000680701D40120009000990198814201DD48
:1030C000081A00E000200025009006E004A8129AEB
:1030D000405D119990476D1C761C0D988542F5DB7B
:1030E00004E0129A302011999047761C0099481EEE
:1030F00000900029F5DC08E00E980E990078491C34
:103100000E91129A11999047761C0199481E0190D0
:103110000029F1DC641CB8E60928010030313233A3
:103120003435363738396162636465660000000003
:1031300030313233343536373839414243444546ED
:1031400000000000E803D11D921AAC17D413EE134F
:10315000C111D00FE803E803E803F00E4F0DDA0BBE
:10316000310BF609E108E807E803E803E803A33BAD
:103170002535592FA52CDC278223A11FE803E8035E
:10318000E8037607A606EC059805FC047004F40332
:10319000E803E803E803DDDDDDDDDCBBBBDDDDDD11
:1031A000DDDDDDDDDDDD98888888888888887777B3
:1031B0007777778888888555555666666666666629
:1031C000666666688888833333322222222222226E
:1031D00022222228888D0000F831000800000020FB
:1031E00044010000D82D000884320008440100206A
:1031F00044060000602E00080229015813191A0124
:10320000011A01020202030505030503030203106C
:103210001F011A0202040101FA040828090101062B
:103220000D0F0D060B021E0D0D0C0D0B0F1C1010BB
:103230001014190239092D0F060F06191E0C0C0C5B
:103240000B0C144B210D0299131B040366495139D1
:1032500005290F591139092905196A2B0404701918
:10326000102909D91301384011AABBCCDDEEFF119A
:103270002233445566778899992D01020304046529
:04328000060708092C
:04000005080000C12E
:00000001FF
